:0400000003EF14F006
:10100000003738392F3435362A3132332D63303DAD
:101010002B256C64000096EC16F0A9EC14F000018E
:10102000FA6F630EFA19D8A418EF08F01AEF08F057
:101030002AEF08F0CE0E0E6E000E0F6E010E106E2F
:1010400082EC13F07E6E000E0001F96F000EF86F57
:101050000DEF08F03D0EFA19D8A431EF08F033EF88
:1010600008F07EEF09F0CE0E1E6E000E1F6E020E0F
:10107000206E010E216E3D0E226E39EC16F07E6E52
:1010800020EE8FF0080EDE6AE806FDE220EE86F024
:10109000080EDE6AE806FDE2E0C08FF0010E0001F6
:1010A000B96F62EF08F0E00EB925D96EDA6A000E6A
:1010B000DA228F0EB925E16EE26A000EE222DFCF5E
:1010C000E7FFB92BE00EB925D96EDA6A000EDA22F5
:1010D0002A0EDE18D8B46FEF08F071EF08F09EEF1B
:1010E00008F0E00EB925D96EDA6A000EDA222B0E6E
:1010F000DE18D8B47EEF08F080EF08F09EEF08F01D
:10110000E00EB925D96EDA6A000EDA222D0EDE184D
:10111000D8B48DEF08F08FEF08F09EEF08F0E00EE6
:10112000B925D96EDA6A000EDA222F0EDE18D8A49D
:101130009CEF08F09EEF08F053EF08F0E00EB925A1
:10114000D96EDA6A000EDA22DF50B06F000EAF6F90
:10115000B9EF08F0E00EB925D96EDA6A000EDA228E
:10116000860EAF25E16EE26A000EE222DFCFE7FFD6
:10117000AF2BB92BF851B95DD8A0C1EF08F0C3EF80
:1011800008F0AAEF08F08F0E0D6E000E0E6E2AEC1E
:101190000CF00DC0B1F00EC0B2F00FC0B3F010C033
:1011A000B4F0860E0D6E000E0E6E2AEC0CF00DC023
:1011B000B5F00EC0B6F00FC0B7F010C0B8F02B0EEF
:1011C0000001B019D8B4E7EF08F0E9EF08F051EFEB
:1011D00009F02D0EB019D8B4F0EF08F0F2EF08F0D6
:1011E0003BEF09F02A0EB019D8B4F9EF08F0FBEF85
:1011F00008F017EF09F0B1C001F0B2C002F0B3C0BF
:1012000003F0B4C004F0B5C005F0B6C006F0B7C036
:1012100007F0B8C008F0ECEC10F001C0ABF002C071
:10122000ACF003C0ADF004C0AEF031EF09F0B1C0D6
:1012300001F0B2C002F0B3C003F0B4C004F0B5C016
:1012400005F0B6C006F0B7C007F0B8C008F074ECFF
:1012500014F001C0ABF002C0ACF003C0ADF004C0AC
:10126000AEF0ABC0A7F0ACC0A8F0ADC0A9F0AEC066
:10127000AAF047EF09F0B551B15DA76FB651B25969
:10128000A86FB751B359A96FB851B459AA6FA7C085
:10129000A3F0A8C0A4F0A9C0A5F0AAC0A6F05DEF75
:1012A00009F0B551B125A36FB651B221A46FB75162
:1012B000B321A56FB851B421A66FA3C080F0A4C01C
:1012C00081F0A5C082F0A6C083F0980E0001846F63
:1012D000000E856F0FEC15F07E6ECE0E1E6E000EAA
:1012E0001F6E020E206E030E216E980E226E000EEF
:1012F000236EF7EC15F07E6E0DEF08F0FA51D8B4BE
:1013000084EF09F086EF09F0BEEF09F0140EF91929
:10131000D8B48DEF09F08FEF09F0BEEF09F0CE0ED3
:101320001E6E000E1F6E010E206EF92BF9C021F00B
:10133000FAC022F039EC16F07E6EE00E0001F825BE
:10134000D96EDA6A000EDA22000EDF6EE00EF825A2
:10135000D96EDA6A000EDA22FAC0DFFFF82BCE0E61
:101360001E6E000E1F6E010E206EF929216E200EDA
:10137000226E39EC16F07E6E0DEF08F00DEF08F0DE
:1013800000EF00F01EC034F01FC035F020C036F072
:1013900021C037F022C038F023C039F024C03AF021
:1013A00025C03BF03BBED7EF09F0DAEF09F0010EA4
:1013B000DBEF09F0000E3E6E3E50D8B4E2EF09F0CC
:1013C000E4EF09F0F4EF09F03B1E3A1E391E381E17
:1013D000371E361E351E346C000E3522362237225B
:1013E000382239223A223B220001F7BF02EF0AF0ED
:1013F000F75106E1F605D8B000EF0AF002EF0AF067
:1014000008EF0AF0000E316E010E306E0CEF0AF09C
:10141000F6C030F0F7C031F0F4C032F0F5C033F070
:101420003E50D8B416EF0AF018EF0AF02FEF0AF08A
:101430003206D8A033063E50D8A421EF0AF023EF9D
:101440000AF029EF0AF0000E2F6E2B0E2E6E2DEFF4
:101450000AF0000E2F6E2D0E2E6E2EC03EF0000EE6
:101460003D6E1F0E3C6E000E0101316FB4EF0AF0AD
:101470003C06D8A03D06120E3C24D96E010E3D203C
:10148000DA6E34C001F035C002F036C003F037C068
:1014900004F038C005F039C006F03AC007F03BC090
:1014A00008F00A0E096E000E0A6E000E0B6E000E9A
:1014B0000C6E000E0D6E000E0E6E000E0F6E000E06
:1014C000106E72EC0EF001C026F002C027F003C0CF
:1014D00028F004C029F005C02AF006C02BF007C090
:1014E0002CF008C02DF026C013F027C014F019EC22
:1014F00016F01350300FDF6E3006D8A031063206DA
:10150000D8A0330634C001F035C002F036C003F075
:1015100037C004F038C005F039C006F03AC007F013
:101520003BC008F00A0E096E000E0A6E000E0B6E2C
:10153000000E0C6E000E0D6E000E0E6E000E0F6E85
:10154000000E106EF3EC0CF001C034F002C035F068
:1015500003C036F004C037F005C038F006C039F0DB
:1015600007C03AF008C03BF03DBEBFEF0AF03D5067
:1015700008E13C04D8A0BFEF0AF0C1EF0AF0DDEFAC
:101580000AF03450351036103710381039103A1030
:101590003B10D8A4CEEF0AF0D0EF0AF038EF0AF0F3
:1015A00031BEDDEF0AF0315006E13004D8B0DBEF98
:1015B0000AF0DDEF0AF038EF0AF03E50D8B4E3EF5E
:1015C0000AF0E5EF0AF0F0EF0AF03C06D8A03D067D
:1015D000120E3C24D96E010E3D20DA6E3EC0DFFFB4
:1015E0001CC011F01DC012F0120E3C24136E010E2F
:1015F0003D20146E32C015F033C016F0C6EC13F067
:10160000120041C0D9FF42C0DAFFDECFF6FFDDCFC6
:10161000F7FF0800F550250AD8A411EF0BF013EFDF
:101620000BF015EF0CF041C0D9FF42C0DAFFDE2A03
:10163000000EDD22000E0001F56F000EF46FF4C005
:101640007DF0F669F76941C0D9FF42C0DAFFDECF0D
:101650005CF0DDCF5DF05CC0F6FF5DC0F7FF080019
:10166000F5CF5BF040EF0BF05C4A5D2A59EF0BF0D1
:10167000690E5B6E59EF0BF0000E5B6E59EF0BF0CD
:101680005B50456E466A4650000AD8B44AEF0BF0EC
:101690003CEF0BF04550640AD8B438EF0BF00D0A5C
:1016A000D8B438EF0BF0050AD8B434EF0BF03CEFA8
:1016B0000BF05CC0F6FF5DC0F7FF0800F550640A50
:1016C000D8B465EF0BF067EF0BF0D1EF0BF05CC017
:1016D000F6FF5DC0F7FF0800F550690AD8A473EF64
:1016E0000BF075EF0BF00CEF0CF0D1EF0BF043C0EB
:1016F000D9FF44C0DAFFDFCF45F0020EDE26DFCF90
:1017000046F0000EDD2245C0D9FF46C0DAFFDECF2D
:1017100053F0DDCF54F0000E54BEFF0E556E566EE2
:10172000576E586E596E5A6EE6EF0BF043C0D9FFF4
:1017300044C0DAFFDFCF45F0040EDE26DFCF46F0EF
:10174000000EDD2245C0D9FF46C0DAFFDECF47F0EC
:10175000DECF48F0DECF49F0DECF4AF047C04BF095
:1017600048C04CF049C04DF04AC04EF04F6A4EBEE2
:101770004F684FC050F04FC051F04FC052F04BC0B7
:1017800053F04CC054F04DC055F04EC056F04FC011
:1017900057F050C058F051C059F052C05AF0E6EF1F
:1017A0000BF05B50456E466A4650000AD8B4DBEF3A
:1017B0000BF0E6EF0BF04550690AD8B477EF0BF069
:1017C000050AD8B496EF0BF0E6EF0BF0010E5C249F
:1017D000456E000E5D20466E41C0D9FF42C0DAFF63
:1017E00045C0DEFF46C0DDFF3FC01CF040C01DF01D
:1017F00053C01EF054C01FF055C020F056C021F059
:1018000057C022F058C023F059C024F05AC025F028
:10181000C2EC09F029EF0CF041C0D9FF42C0DAFF59
:10182000DE2A000EDD2229EF0CF041C0D9FF42C0B4
:10183000DAFFDECFF6FFDDCFF7FF0800F550016ECF
:10184000026A3FC003F040C004F0E4EC11F00CEF7A
:101850000CF01200000E186E000E196E000E1A6EBB
:10186000000E1B6E000E176E000E166E3AEF0CF097
:101870000D4A0E2A0DC0D9FF0EC0DAFF200EDE1869
:10188000D8B445EF0CF047EF0CF038EF0CF00DC07A
:10189000D9FF0EC0DAFFDF50116EF70E1124126E61
:1018A000136AFF0E1322135009E1050E125CD8A033
:1018B0005CEF0CF05EEF0CF038EF0CF068EF0CF022
:1018C000000E176E010E166E0D4A0E2AAFEF0CF0C9
:1018D0000DC0D9FF0EC0DAFFDF50116E126A125030
:1018E000000AD8B476EF0CF0AFEF0CF011502B0AD1
:1018F000D8B464EF0CF0060AD8B460EF0CF0AFEF88
:101900000CF00DC0D9FF0EC0DAFFDF50116ED00E03
:101910001124126E136AFF0E1322146A156A18C07E
:1019200001F019C002F01AC003F01BC004F00A0E47
:10193000056E000E066E000E076E000E086E74EC4B
:1019400014F01250015C186E13500258196E1450A6
:1019500003581A6E155004581B6E64EF0CF00DC03E
:10196000D9FF0EC0DAFFDF50116ED00E1124126EB7
:10197000136AFF0E1322135009E10A0E125CD8A05D
:10198000C4EF0CF0C6EF0CF081EF0CF016501710FE
:10199000D8A4CDEF0CF0CFEF0CF0EAEF0CF018C0AC
:1019A00011F019C012F01AC013F01BC014F0111E70
:1019B000121E131E141E112A000E122213221422AC
:1019C00011C00DF012C00EF013C00FF014C010F0D3
:1019D000F2EF0CF018C00DF019C00EF01AC00FF0A5
:1019E0001BC010F01200000E126E10BEFCEF0CF0C7
:1019F000FAEF0CF00EEF0DF0101E0F1E0E1E0D1E56
:101A00000C1E0B1E0A1E096C000E0A220B220C2251
:101A10000D220E220F221022010E126E08BE15EFAB
:101A20000DF013EF0DF027EF0DF0081E071E061E38
:101A3000051E041E031E021E016C000E022203225C
:101A400004220522062207220822010E121A20EE85
:101A500013F0070EDE6AE806FDE209500A100B10CB
:101A60000C100D100E100F101010D8B43AEF0DF02E
:101A70003CEF0DF08EEF0DF0010E116E4AEF0DF000
:101A8000D89009360A360B360C360D360E360F3620
:101A90001036112A10AE4FEF0DF051EF0DF040EF60
:101AA0000DF0D8901336143615361636173618360C
:101AB00019361A360950015C0A5002580B50035867
:101AC0000C5004580D5005580E5006580F5007582A
:101AD00010500858D8A06FEF0DF071EF0DF082EFA5
:101AE0000DF00950015E0A50025A0B50035A0C5077
:101AF000045A0D50055A0E50065A0F50075A1050EE
:101B0000085A1380D89010320F320E320D320C3238
:101B10000B320A320932112E51EF0DF01250D8B4A7
:101B200094EF0DF096EF0DF0A6EF0DF01A1E191EB2
:101B3000181E171E161E151E141E136C000E1422DE
:101B4000152216221722182219221A2213C001F078
:101B500014C002F015C003F016C004F017C005F061
:101B600018C006F019C007F01AC008F0120001C032
:101B70000BF002C00CF005500610D8A4C2EF0DF017
:101B8000C4EF0DF0C6EF0DF071EF0EF00BC0D9FFF2
:101B90000CC0DAFF03C0DFFF05500B24076E0650B0
:101BA0000C20086EFF0E0724D96EFF0E0820DA6E97
:101BB00003C0DFFF065007E1030E055CD8B0E3EF7A
:101BC0000DF0E5EF0DF0E7EF0DF071EF0EF020EE08
:101BD00001F00B50D9260C50DA2203C0DFFF20EEB3
:101BE00002F00B50D9260C50DA2203C0DFFF05505B
:101BF0000B24076E06500C20086EFE0E0724D96ECB
:101C0000FF0E0820DA6E03C0DFFF05500B24076EBD
:101C100006500C20086EFD0E0724D96EFF0E08201A
:101C2000DA6E03C0DFFF065007E1070E055CD8B08F
:101C30001CEF0EF01EEF0EF020EF0EF071EF0EF025
:101C400020EE03F00B50D9260C50DA2203C0DFFF40
:101C500005500B24076E06500C20086EFC0E07245E
:101C6000D96EFF0E0820DA6E03C0DFFF065007E1D1
:101C7000090E055CD8B03FEF0EF041EF0EF043EFD8
:101C80000EF071EF0EF00BC007F00CC008F0071E4D
:101C9000081E074A082A030E0714096E0A6A09502B
:101CA0000B260A500C220950055E0A50065AFC0EFB
:101CB0000516FF0E061668EF0EF00BC0D9FF0CC01C
:101CC000DAFF03C0DFFF0506D8A006060B4A0C2A80
:101CD00005500610D8A46FEF0EF071EF0EF05DEF17
:101CE0000EF01200000E126E08BE7BEF0EF079EFC0
:101CF0000EF08DEF0EF0081E071E061E051E041EB8
:101D0000031E021E016C000E022203220422052281
:101D1000062207220822010E126E10BE94EF0EF06A
:101D200092EF0EF0A4EF0EF0101E0F1E0E1E0D1EF1
:101D30000C1E0B1E0A1E096C000E0A220B220C221E
:101D40000D220E220F22102209500A100B100C1027
:101D50000D100E100F101010D8B4B1EF0EF0B3EF3D
:101D60000EF0FBEF0EF0010E116EC1EF0EF0D890E9
:101D700009360A360B360C360D360E360F3610364F
:101D8000112A10AEC6EF0EF0C8EF0EF0B7EF0EF04E
:101D90000950015C0A5002580B5003580C5004586B
:101DA0000D5005580E5006580F500758105008583F
:101DB000D8A0DDEF0EF0DFEF0EF0EFEF0EF00950E0
:101DC000015E0A50025A0B50035A0C50045A0D502F
:101DD000055A0E50065A0F50075A1050085AD890FC
:101DE00010320F320E320D320C320B320A320932FF
:101DF000112EC8EF0EF01250D8B401EF0FF003EF20
:101E00000FF013EF0FF0081E071E061E051E041E1E
:101E1000031E021E016C000E022203220422052270
:101E200006220722082201C001F002C002F003C00E
:101E300003F004C004F005C005F006C006F007C0BA
:101E400007F008C008F01200010E096E01500210E0
:101E5000D8B42DEF0FF02FEF0FF040EF0FF001C0CF
:101E6000D9FF02C0DAFFDF30E832E832070B036E39
:101E7000070E03643EEF0FF040EF0FF0A3EF0FF0FB
:101E8000000E096EC4EF0FF001C0D9FF02C0DAFFE7
:101E9000DF30E832E832070B036E010E046E032ACE
:101EA00054EF0FF0D8900436032E52EF0FF0045089
:101EB000FF0A056E01C0D9FF02C0DAFFDF50070B31
:101EC000066E0650020DC40EF324D96E000EF420E7
:101ED000DA6EDECF07F0DDCF08F007C0D9FF08C00B
:101EE000DAFF0550DF16C4EF0FF001C0D9FF02C0C2
:101EF000DAFFDF30E832E832070B036E010E046EC2
:101F0000032A85EF0FF0D8900436032E83EF0FF0ED
:101F100001C0D9FF02C0DAFFDF50070B056E055084
:101F2000020DC40EF324D96E000EF420DA6EDECF5B
:101F300006F0DDCF07F006C0D9FF07C0DAFF045076
:101F4000DF12C4EF0FF001C0D9FF02C0DAFFDFBC1F
:101F5000ACEF0FF0AFEF0FF0010EB0EF0FF0000E8F
:101F6000036E046A0450000AD8B4B9EF0FF040EFD2
:101F70000FF00350000AD8B444EF0FF0010AD8B4B0
:101F800075EF0FF040EF0FF009501200010E0A6ECE
:101F900001500210D8B4CFEF0FF0D1EF0FF0E2EF05
:101FA0000FF001C0D9FF02C0DAFFDF30E832E832BB
:101FB000070B046E070E0464E0EF0FF0E2EF0FF082
:101FC00045EF10F0000E0A6E5AEF10F001C0D9FF75
:101FD00002C0DAFFDF30E832E832070B046E010E90
:101FE000056E042AF6EF0FF0D8900536042EF4EFB4
:101FF0000FF00550FF0A066E01C0D9FF02C0DAFFDC
:10200000DF50070B076E0750020DBA0EF324D96E8E
:10201000000EF420DA6EDECF08F0DDCF09F008C044
:10202000D9FF09C0DAFF0650DF165AEF10F001C0E1
:10203000D9FF02C0DAFFDF30E832E832070B046E66
:10204000010E056E042A27EF10F0D8900536042EF5
:1020500025EF10F001C0D9FF02C0DAFFDF50070BF7
:10206000066E0650020DBA0EF324D96E000EF4204F
:10207000DA6EDECF07F0DDCF08F007C0D9FF08C069
:10208000DAFF0550DF125AEF10F00350046E056AB4
:102090000550000AD8B44FEF10F0E2EF0FF00450F3
:1020A000000AD8B4E6EF0FF0010AD8B417EF10F029
:1020B000E2EF0FF00A501200000E1C6E17501810BD
:1020C000D8B465EF10F067EF10F0EAEF10F017C02A
:1020D0000BF018C00CF03EEC14F0010E17240B6E40
:1020E000000E18200C6E3EEC14F0000E1B6E1B5000
:1020F0001724196E000E18201A6E020E19240B6E8A
:10210000000E1A200C6E3EEC14F01B2A070E1B6406
:102110008CEF10F08EEF10F077EF10F01A0E196EB2
:10212000F80EE82EFED7192EFCD700D017C00EF0FF
:1021300018C00FF0380E106E82EC13F0070E196EF7
:102140007D0EE82EFED7192EFCD700F017C00EF03A
:1021500018C00FF0380E106E82EC13F0320EE82E1D
:10216000FED717C00EF018C00FF0380E106E82ECBC
:1021700013F017C00EF018C00FF0010E106E82ECB5
:1021800013F017C00EF018C00FF0020E106E82ECA4
:1021900013F017C00EF018C00FF0060E106E82EC90
:1021A00013F017C00EF018C00FF00C0E106E82EC7A
:1021B00013F017C00EF018C00FF0380E106E82EC3E
:1021C00013F017C00EF018C00FF0800E106E82ECE6
:1021D00013F01C6E1C501200000E0A6E08BEF5EFC4
:1021E00010F0F3EF10F0FFEF10F0081E071E061EB0
:1021F000056C000E062207220822010E0A6E04BE9C
:1022000006EF11F004EF11F010EF11F0041E031EA1
:10221000021E016C000E022203220422010E0A1A81
:10222000000E0B6E000E0C6E000E0D6E000E0E6E8C
:102230000550061007100810D8B421EF11F023EF55
:1022400011F059EF11F0010E096E2DEF11F0D89039
:102250000536063607360836092A08AE32EF11F081
:1022600034EF11F027EF11F0D8900B360C360D3605
:102270000E360550015C06500258075003580850AE
:102280000458D8A046EF11F048EF11F051EF11F0CB
:102290000550015E0650025A0750035A0850045A6E
:1022A0000B80D8900832073206320532092E34EFFF
:1022B00011F00A50D8B45FEF11F061EF11F069EF3F
:1022C00011F00E1E0D1E0C1E0B6C000E0C220D22AA
:1022D0000E220BC001F00CC002F00DC003F00EC0C6
:1022E00004F01200000E116E0B500C10D8B47BEFEE
:1022F00011F07DEF11F0E2EF11F00D500E10D8B497
:1023000084EF11F086EF11F0E2EF11F0000E146E81
:1023100014500B24016E000E0C20026E010E036E91
:10232000C6EC0FF0000E136E13500B240F6E000E50
:102330000C20106E040E0F24016E000E1020026E91
:10234000120E036E000E046E49EC12F01204D8A4B3
:10235000ACEF11F0AEEF11F0C5EF11F01450040D19
:10236000010EF3240F6E100EF420106E13500F2682
:10237000000E10220FC0F6FF10C0F7FF0DC0D9FFEE
:102380000EC0DAFF0800F5CFDFFF132A030E136437
:10239000CCEF11F0CEEF11F094EF11F014500B24AC
:1023A000016E000E0C20026E000E036EC6EC0FF0E4
:1023B000116E142A030E1464E0EF11F0E2EF11F035
:1023C00088EF11F01150120003500410D8B4EBEF55
:1023D00011F0EDEF11F0F6EF11F003500410D8A456
:1023E000F4EF11F0F6EF11F0FBEF11F001509AEC61
:1023F00016F048EF12F020EE09F00350D9260450F1
:10240000DA22DE50DE10D8B408EF12F00AEF12F034
:1024100025EF12F020EE09F00350D9260450DA22FD
:1024200010EE03F00350E1260450E222DE50E65C99
:10243000E650800A096EDE50800A0958D8B023EFB2
:1024400012F025EF12F048EF12F020EE03F00350E7
:10245000D9260450DA22DECF05F0DDCF06F003C026
:10246000D9FF04C0DAFFDECF07F0DDCF08F005505A
:102470000724D96E06500820DA6E01C0DFFF20EE77
:1024800003F00350D9260450DA22DE2A000EDD22A2
:102490001200010E0A6E01500210D8B452EF12F071
:1024A00054EF12F06EEF12F003500410D8B45BEF4B
:1024B00012F05DEF12F06EEF12F001C0D9FF02C012
:1024C000DAFFDF30E832E832070B056E070E0564ED
:1024D0006CEF12F06EEF12F072EF12F0000E0A6E57
:1024E000A3EF12F001C0D9FF02C0DAFFDF30E832FB
:1024F000E832070B056E01C0D9FF02C0DAFFDF50DA
:10250000070B066E0650020D320EF324D96E010E33
:10251000F420DA6EDECF07F0DDCF08F007C0D9FF78
:1025200008C0DAFFDF50096E052A99EF12F0D89043
:102530000932052E97EF12F00950010B03C0D9FFA5
:1025400004C0DAFFDF6E0A501200000E1D6E175035
:102550001810D8B4AEEF12F0B0EF12F0F0EF12F0A6
:10256000030E1960B6EF12F0B8EF12F0F0EF12F0B0
:10257000150E1A60BEEF12F0C0EF12F0F0EF12F07D
:102580001A06DBEF12F017C00EF018C00FF01A5049
:10259000800F106E82EC13F01D6EF0EF12F017C07A
:1025A0000EF018C00FF01A50C00F106E82EC13F02E
:1025B0001D6EF0EF12F019501B6E1C6A1C50000AC1
:1025C000D8B4E5EF12F0F0EF12F01B50010AD8B4C6
:1025D000C3EF12F0030AD8B4CFEF12F0F0EF12F00D
:1025E0001D501200000E136E0F501010D8B4FBEFE8
:1025F00012F0FDEF12F03CEF13F0000E156E000E1E
:10260000146E14500F240B6E155010200C6E3EECFF
:1026100014F0144A152A15BE17EF13F0155009E1EE
:10262000040E145CD8A017EF13F019EF13F001EFAC
:1026300013F0000E176E000E166E16500F24116E5A
:1026400017501020126E040E1124016E000E12207D
:10265000026E24EC0FF0136E164A172A17BE3AEFDB
:1026600013F0175009E1040E165CD8A03AEF13F0EE
:102670003CEF13F01DEF13F013501200000E156E17
:102680000E500F10D8B447EF13F049EF13F080EF5E
:1026900013F00EC001F00FC002F0010E036EC6EC85
:1026A0000FF0000E166E16500E24116E000E0F2045
:1026B000126E020E1124016E000E1220026E16C060
:1026C00013F010C014F0132A68EF13F0D8901432EE
:1026D000132E66EF13F01450010B036EC6EC0FF0CF
:1026E000162A070E166477EF13F079EF13F053EF05
:1026F00013F00EC00BF00FC00CF08DEC15F0156E42
:1027000015501200000E156E0E500F10D8B48BEF3E
:1027100013F08DEF13F0C4EF13F00EC001F00FC0F3
:1027200002F0000E036EC6EC0FF0000E166E16508F
:102730000E24116E000E0F20126E020E1124016E77
:10274000000E1220026E16C013F010C014F0132AEF
:10275000ACEF13F0D8901432132EAAEF13F01450EC
:10276000010B036EC6EC0FF0162A070E1664BBEFC2
:1027700013F0BDEF13F097EF13F00EC00BF00FC086
:102780000CF08DEC15F0156E1550120016BECBEF47
:1027900013F0CDEF13F0D3EF13F015C01AF016C0FD
:1027A0001BF0D7EF13F0000E1B6E000E1A6E000E1A
:1027B000196E000E186EE9EF13F0000E026E200E77
:1027C000016E11C003F012C004F0E4EC11F0184ADD
:1027D000192A1A50185C1950800A176E1B50800A6B
:1027E0001758D8A0F6EF13F0F8EF13F0DDEF13F061
:1027F00013C00AF014C00BF011C00CF012C00DF0A1
:10280000D5EC15F01200220EF66E2D0EF76E000EAE
:10281000F86E01EE32F010EE0AF00900F5CFEEFF8F
:10282000E550E150FAE1DE0EF66E2C0EF76E000E6A
:10283000F86E00EEBAF010EE26F00900F5CFEEFFCC
:10284000E550E150FAE1360EF66E2D0EF76E000EF1
:10285000F86E0900F5CF7EF001EE00F0320EEE6A60
:10286000E806FDE100EEE0F01A0EEE6AE806FDE192
:102870007D6A000EF86E00010BEF08F00B500C1093
:10288000D8B445EF14F047EF14F058EF14F00BC034
:10289000D9FF0CC0DAFFDF30E832E832070B0D6EEB
:1028A000070E0D6456EF14F058EF14F05CEF14F0BF
:1028B000000E0E6E72EF14F00BC001F00CC002F0AF
:1028C00024EC0FF00E6E0BC001F00CC002F00BC038
:1028D000D9FF0CC0DAFF000EDFBE010E036EC6EC9E
:1028E0000FF00E6E0E501200000E096E000E0A6EF2
:1028F000000E0B6E000E0C6E01A081EF14F083EF42
:1029000014F08BEF14F00550092606500A220750E8
:102910000B2208500C22D8900536063607360836AA
:10292000D8900432033202320132015002100310F7
:102930000410D8A49EEF14F0A0EF14F07CEF14F074
:1029400009C001F00AC002F00BC003F00CC004F093
:102950001200D80E0B6E000E0C6E160E0D6E000ED1
:102960000E6E72EC11F07E6EC30E156ECD0EE82E5B
:10297000FED7152EFCD700F01650D8A4C2EF14F0E5
:10298000C4EF14F0C7EF14F0000EDCEF14F0D80E13
:102990000B6E000E0C6E170E0D6E000E0E6E72ECAE
:1029A00011F07E6E17501618D8A4D9EF14F0DBEF93
:1029B00014F0C4EF14F017501200000E1B6E1750E5
:1029C0001810D8B4E6EF14F0E8EF14F00DEF15F09E
:1029D00019501A10D8B4EFEF14F0F1EF14F00DEF16
:1029E00015F0010E1B6E17C00EF018C00FF019C0C5
:1029F000D9FF1AC0DAFFDF50106E3EEC13F0194A0F
:102A00001A2A19C0D9FF1AC0DAFFDF50D8A40BEF79
:102A100015F00DEF15F0F3EF14F01B501200000E3F
:102A20007B6E000184518511D8B419EF15F01BEFAE
:102A300015F03DEF15F0010E7B6E84C001F085C0EE
:102A400002F0000E046E000E036E000E066E0B0EFA
:102A5000056EB7EC0DF084C066F085C067F0110E0E
:102A6000686E100E696E80C06AF081C06BF082C023
:102A70006CF083C06DF03FEC15F07B5012006A0ED5
:102A80006E6E000E6F6E66C070F067C071F0000E63
:102A9000746E000E736E000E7A6E000E796E700EFC
:102AA0005E6E000E5F6E68C060F069C061F06E0E11
:102AB000626E000E636E66EC15F073506624D96E7C
:102AC00074506720DA6E000EDF6E120060C064F092
:102AD00061C065F07AEF15F05EC03FF05FC040F076
:102AE000640E416E000E426E62C043F063C044F05B
:102AF00001EC0BF064C0F6FF65C0F7FF0800F5506D
:102B00000009D8A486EF15F088EF15F06CEF15F0EA
:102B1000000E5F6E000E5E6E1200000E0D6E0B500A
:102B20000C10D8B496EF15F098EF15F0B0EF15F043
:102B3000010E0B24016E000E0C20026E010E036EBE
:102B4000C6EC0FF000D000D000F0010E0B24016E97
:102B5000000E0C20026E000E036EC6EC0FF00D6E20
:102B60000D501200010E056E200E01180210D8B48F
:102B7000BCEF15F0BEEF15F0D1EF15F0F70E012404
:102B8000036EFF0E0220046E045009E1050E035C83
:102B9000D8A0CDEF15F0CFEF15F0D1EF15F0000E66
:102BA000056E05C001F0026A1200000E106E000EE4
:102BB0000F6EE6EF15F00EC001F0026A0CC003F0D4
:102BC0000DC004F0E4EC11F00F4A102A0F500A2453
:102BD000D96E10500B20DA6EDF500E6E0E50D8A456
:102BE000F4EF15F0F6EF15F0DBEF15F01200000E24
:102BF000246E1E501F10D8B400EF16F002EF16F02E
:102C000017EF16F01EC017F01FC018F020C019F003
:102C100021C01AF0A5EC12F01EC017F01FC018F06A
:102C200022C019F023C01AF0DDEC14F0246E2450F9
:102C3000120014BE26EF16F0145006E11304D8B0AB
:102C400024EF16F026EF16F034EF16F013C015F04F
:102C500014C016F0151E161E154A162A15C013F0BC
:102C600016C014F038EF16F013C013F014C014F0AF
:102C70001200000E236E1E501F10D8B442EF16F043
:102C800044EF16F057EF16F01EC017F01FC018F0F3
:102C900020C019F021C01AF0A5EC12F01EC00EF0F1
:102CA0001FC00FF022C010F03EEC13F0236E235033
:102CB0001200D00E0124036EFF0E0220046E045099
:102CC0000AE10A0E035CD8A068EF16F06BEF16F06D
:102CD000010E6CEF16F0000E016E026A1200890FF1
:102CE0008A0F8B0F8C0F8D0F920F930F940F950FF0
:102CF000960F040C030B131B232B333B020A121AEF
:102D0000626A727AD80E0F6E000E106EF2EC12F03C
:102D1000CE0E176E000E186E5CEC10F01D6E1D507E
:102D20001200800F810F820F830F840F82EC16F048
:072D30007E6E12001200018B
:020000040020DA
:08000000FFFFFFFFFFFFFFFF00
:020000040030CA
:0E000000FF071F1FFF8385FF0FC00FE00F409B
:00000001FF
